{
  "contractName": "Payments",
  "abi": [
    {
      "anonymous": false,
      "inputs": [
        {
          "indexed": false,
          "internalType": "uint256",
          "name": "amount",
          "type": "uint256"
        }
      ],
      "name": "Balance",
      "type": "event"
    },
    {
      "anonymous": false,
      "inputs": [
        {
          "indexed": false,
          "internalType": "uint256",
          "name": "amount",
          "type": "uint256"
        }
      ],
      "name": "CurrentBalance",
      "type": "event"
    },
    {
      "anonymous": false,
      "inputs": [
        {
          "components": [
            {
              "internalType": "uint256",
              "name": "ID",
              "type": "uint256"
            },
            {
              "internalType": "uint256",
              "name": "value",
              "type": "uint256"
            },
            {
              "internalType": "address",
              "name": "from",
              "type": "address"
            },
            {
              "internalType": "address",
              "name": "to",
              "type": "address"
            },
            {
              "internalType": "uint256",
              "name": "time",
              "type": "uint256"
            }
          ],
          "indexed": false,
          "internalType": "struct Payments.Transaction",
          "name": "t",
          "type": "tuple"
        }
      ],
      "name": "Deposit",
      "type": "event"
    },
    {
      "anonymous": false,
      "inputs": [
        {
          "components": [
            {
              "internalType": "uint256",
              "name": "ID",
              "type": "uint256"
            },
            {
              "internalType": "uint256",
              "name": "value",
              "type": "uint256"
            },
            {
              "internalType": "address",
              "name": "from",
              "type": "address"
            },
            {
              "internalType": "address",
              "name": "to",
              "type": "address"
            },
            {
              "internalType": "uint256",
              "name": "time",
              "type": "uint256"
            }
          ],
          "indexed": false,
          "internalType": "struct Payments.Transaction",
          "name": "t",
          "type": "tuple"
        },
        {
          "indexed": false,
          "internalType": "bytes",
          "name": "data",
          "type": "bytes"
        }
      ],
      "name": "Withdraw",
      "type": "event"
    },
    {
      "anonymous": false,
      "inputs": [],
      "name": "WithdrawFailure",
      "type": "event"
    },
    {
      "inputs": [],
      "name": "deposit",
      "outputs": [],
      "stateMutability": "payable",
      "type": "function",
      "payable": true
    },
    {
      "inputs": [
        {
          "internalType": "uint256",
          "name": "amount",
          "type": "uint256"
        }
      ],
      "name": "withdraw",
      "outputs": [],
      "stateMutability": "payable",
      "type": "function",
      "payable": true
    },
    {
      "inputs": [],
      "name": "getCurrentBalance",
      "outputs": [
        {
          "internalType": "uint256",
          "name": "",
          "type": "uint256"
        }
      ],
      "stateMutability": "nonpayable",
      "type": "function"
    }
  ],
  "bytecode": "0x608060405234801561001057600080fd5b50610609806100206000396000f3fe608060405260043610610050577c010000000000000000000000000000000000000000000000000000000060003504632e1a7d4d8114610055578063a57497101461006a578063d0e30db014610091575b600080fd5b61006861006336600461047d565b610099565b005b34801561007657600080fd5b5061007f6102b1565b60405190815260200160405180910390f35b610068610308565b3360009081526002602052604090205481116102845760016000808282546100c19190610556565b90915550506040805160a08101825260008054825260208083018590523083850152336060840181905242608085015282526002905291822080549192849261010b90849061058d565b90915550506000805481526001602081815260408084208551815591850151928201929092558382015160028201805473ffffffffffffffffffffffffffffffffffffffff92831673ffffffffffffffffffffffffffffffffffffffff199182161790915560608601516003840180549190931691161790556080840151600490910155518190339085908381818185875af1925050503d80600081146101ce576040519150601f19603f3d011682016040523d82523d6000602084013e6101d3565b606091505b509150915081610243576040517f08c379a000000000000000000000000000000000000000000000000000000000815260206004820152601260248201527f636f756c64206e6f742077697468647261770000000000000000000000000000604482015260640160405180910390fd5b7fda67dfebe676324b2e821f78a495885523e66dc69a7f5763afe60464bd350e4183826040516102749291906104f5565b60405180910390a15050506102ae565b6040517f1a0263ed436266744072d5b62695bd5a661e1b61e106a60b28f9b2559375cde390600090a15b50565b3360009081526002602090815260408083205490519081527fccd63b477c883a586271d6c5e65e8a82327bddc52ed1908a1078708f8c5c101a910160405180910390a1503360009081526002602052604090205490565b600160008082825461031a9190610556565b90915550506040805160a08101909152600080548252906020810161034734670de0b6b3a764000061056e565b815233602080830182905230604080850191909152426060948501526000805481526001808452828220875181558785015191810191909155868301516002808301805473ffffffffffffffffffffffffffffffffffffffff93841673ffffffffffffffffffffffffffffffffffffffff199182161790915597890151600384018054919093169816979097179055608087015160049091015592835292905220549091506103f63482610556565b3360009081526002602052604090819020829055517fe8d947d7ebdd7b8b8fa2ad2022c7591418ac32d8c29c5f8a8fc9de52ffa540929161043a9190815260200190565b60405180910390a17f28e98b83f2df9fe9efcc7b23e1487634c2d4001d734219002bbc4b741c2447b48260405161047191906104e1565b60405180910390a15050565b60006020828403121561048e578081fd5b5035919050565b8051825260208101516020830152604081015173ffffffffffffffffffffffffffffffffffffffff80821660408501528060608401511660608501525050608081015160808301525050565b60a081016104ef8284610495565b92915050565b60006105018285610495565b60c060a083015282518060c0840152815b8181101561052f57602081860181015160e0868401015201610512565b81811115610540578260e083860101525b50601f01601f19169190910160e0019392505050565b60008219821115610569576105696105a4565b500190565b6000816000190483118215151615610588576105886105a4565b500290565b60008282101561059f5761059f6105a4565b500390565b7f4e487b7100000000000000000000000000000000000000000000000000000000600052601160045260246000fdfea26469706673582212207b0d4b552b862f76ec01ef64d5df69e4c25ef450f38edc6ebf72c8662217031164736f6c63430008020033",
  "immutableReferences": {},
  "source": "//SPDX-License-Identifier: MIT\npragma solidity >=0.4.0 <0.9.0;\npragma experimental ABIEncoderV2;\n\n\ncontract Payments{   \n    struct Transaction {\n        uint  ID;\n        uint value;\n        address from;\n        address to;\n        uint    time;\n        }\n    uint internal transactionNumber;\n    mapping(uint => Transaction) internal  transactions;\n    mapping(address => uint) internal balance;\n\n\n\n    event Withdraw(Transaction t, bytes data);\n    event Deposit(Transaction t);\n    event WithdrawFailure();\n    event CurrentBalance(uint amount);\n    event Balance(uint amount);\n   \n   \n    function deposit() public payable{\n        transactionNumber += 1;\n        Transaction memory t = Transaction(\n            transactionNumber,\n            msg.value * 1 ether,\n            msg.sender,\n            address(this),\n            block.timestamp\n        );\n        transactions[transactionNumber] = t;\n        uint currentBalance = balance[msg.sender];\n        balance[msg.sender] = currentBalance + msg.value;\n\n        emit Balance(balance[msg.sender]);\n\n        emit Deposit(t);\n    \n    }\n    function withdraw(uint amount) public payable{\n        if (balance[msg.sender] >= amount){\n            transactionNumber += 1;\n            Transaction memory t = Transaction(\n                transactionNumber,\n                amount,\n                address(this),\n                msg.sender,\n                block.timestamp\n            );\n            balance[msg.sender] -= amount;\n            transactions[transactionNumber] = t;\n            (bool sent, bytes memory data) = msg.sender.call{value: amount}(\"\");\n            require(sent, \"could not withdraw\");\n            emit Withdraw(t, data);\n\n        }else{\n            emit WithdrawFailure();\n        }\n\n    }\n    function getCurrentBalance() public returns(uint){\n        emit CurrentBalance(balance[msg.sender]);\n        return (balance[msg.sender]);\n    }\n\n\n\n\n}",
  "sourcePath": "/home/memez-michalek/Desktop/projects/DecentralizedAllegro/frontend/contracts/Payments.sol",
  "compiler": {
    "name": "solc",
    "version": "0.8.2+commit.661d1103.Emscripten.clang"
  },
  "schemaVersion": "3.4.1",
  "updatedAt": "2021-07-18T18:25:58.275Z",
  "networkType": "ethereum",
  "devdoc": {
    "kind": "dev",
    "methods": {},
    "version": 1
  },
  "userdoc": {
    "kind": "user",
    "methods": {},
    "version": 1
  }
}