{
  "contractName": "Payments",
  "abi": [
    {
      "anonymous": false,
      "inputs": [
        {
          "indexed": false,
          "internalType": "uint256",
          "name": "amount",
          "type": "uint256"
        }
      ],
      "name": "CurrentBalance",
      "type": "event"
    },
    {
      "anonymous": false,
      "inputs": [
        {
          "components": [
            {
              "internalType": "uint256",
              "name": "ID",
              "type": "uint256"
            },
            {
              "internalType": "uint256",
              "name": "value",
              "type": "uint256"
            },
            {
              "internalType": "address",
              "name": "from",
              "type": "address"
            },
            {
              "internalType": "address",
              "name": "to",
              "type": "address"
            },
            {
              "internalType": "uint256",
              "name": "time",
              "type": "uint256"
            }
          ],
          "indexed": false,
          "internalType": "struct Payments.Transaction",
          "name": "t",
          "type": "tuple"
        }
      ],
      "name": "Deposit",
      "type": "event"
    },
    {
      "anonymous": false,
      "inputs": [
        {
          "components": [
            {
              "internalType": "uint256",
              "name": "ID",
              "type": "uint256"
            },
            {
              "internalType": "uint256",
              "name": "value",
              "type": "uint256"
            },
            {
              "internalType": "address",
              "name": "from",
              "type": "address"
            },
            {
              "internalType": "address",
              "name": "to",
              "type": "address"
            },
            {
              "internalType": "uint256",
              "name": "time",
              "type": "uint256"
            }
          ],
          "indexed": false,
          "internalType": "struct Payments.Transaction",
          "name": "t",
          "type": "tuple"
        }
      ],
      "name": "Withdraw",
      "type": "event"
    },
    {
      "anonymous": false,
      "inputs": [],
      "name": "WithdrawFailure",
      "type": "event"
    },
    {
      "inputs": [
        {
          "internalType": "uint256",
          "name": "amount",
          "type": "uint256"
        }
      ],
      "name": "deposit",
      "outputs": [],
      "stateMutability": "payable",
      "type": "function",
      "payable": true
    },
    {
      "inputs": [
        {
          "internalType": "uint256",
          "name": "amount",
          "type": "uint256"
        }
      ],
      "name": "withdraw",
      "outputs": [],
      "stateMutability": "payable",
      "type": "function",
      "payable": true
    },
    {
      "inputs": [],
      "name": "getCurrentBalance",
      "outputs": [],
      "stateMutability": "nonpayable",
      "type": "function"
    }
  ],
  "bytecode": "0x608060405234801561001057600080fd5b50610498806100206000396000f3fe608060405260043610610050577c010000000000000000000000000000000000000000000000000000000060003504632e1a7d4d8114610055578063a57497101461006a578063b6b55f251461007f575b600080fd5b610068610063366004610377565b610092565b005b34801561007657600080fd5b506100686101f3565b61006861008d366004610377565b610239565b336000908152600260205260409020548110156101c65760016000808282546100bb91906103e5565b90915550506040805160a08101825260008054825260208083018590523083850152336060840181905242608085015282526002905291822080549192849261010590849061041c565b9091555050600080548152600160208181526040928390208451815590840151918101919091558183015160028201805473ffffffffffffffffffffffffffffffffffffffff92831673ffffffffffffffffffffffffffffffffffffffff199182161790915560608501516003840180549190931691161790556080830151600490910155517f501d2ee23004319f6a5bb2b46418b1302d4b47878ed98d04c1da0bc2adc3f5cf906101b890839061038f565b60405180910390a1506101f0565b6040517f1a0263ed436266744072d5b62695bd5a661e1b61e106a60b28f9b2559375cde390600090a15b50565b336000908152600260209081526040918290205491519182527fccd63b477c883a586271d6c5e65e8a82327bddc52ed1908a1078708f8c5c101a910160405180910390a1565b600160008082825461024b91906103e5565b90915550506040805160a08101909152600080548252906020810161027884670de0b6b3a76400006103fd565b815233602080830182905230604080850191909152426060948501526000805481526001808452828220875181558785015191810191909155868301516002808301805473ffffffffffffffffffffffffffffffffffffffff93841673ffffffffffffffffffffffffffffffffffffffff1991821617909155978901516003840180549190931698169790971790556080870151600490910155928352929052205490915061032734826103e5565b336000908152600260205260409081902091909155517f28e98b83f2df9fe9efcc7b23e1487634c2d4001d734219002bbc4b741c2447b49061036a90849061038f565b60405180910390a1505050565b600060208284031215610388578081fd5b5035919050565b600060a0820190508251825260208301516020830152604083015173ffffffffffffffffffffffffffffffffffffffff808216604085015280606086015116606085015250506080830151608083015292915050565b600082198211156103f8576103f8610433565b500190565b600081600019048311821515161561041757610417610433565b500290565b60008282101561042e5761042e610433565b500390565b7f4e487b7100000000000000000000000000000000000000000000000000000000600052601160045260246000fdfea26469706673582212206d496957cd868da37af351d289e93aa8ff20f2414eb0909c908d0c99a690da8f64736f6c63430008020033",
  "immutableReferences": {},
  "source": "//SPDX-License-Identifier: MIT\npragma solidity >=0.4.0 <0.9.0;\npragma experimental ABIEncoderV2;\n\n\ncontract Payments{   \n    struct Transaction {\n        uint  ID;\n        uint value;\n        address from;\n        address to;\n        uint    time;\n        }\n    uint transactionNumber;\n    mapping(uint => Transaction) transactions;\n    mapping(address => uint) balance;\n\n\n\n    event Withdraw(Transaction t);\n    event Deposit(Transaction t);\n    event WithdrawFailure();\n    event CurrentBalance(uint amount);\n\n   /* constructor() public{\n\n    }*/\n\n   \n    function deposit(uint amount) public payable{\n        transactionNumber += 1;\n        Transaction memory t = Transaction(\n            transactionNumber,\n            amount * 1 ether,\n            msg.sender,\n            address(this),\n            block.timestamp\n        );\n        transactions[transactionNumber] = t;\n        uint currentBalance = balance[msg.sender];\n        balance[msg.sender] = currentBalance + msg.value;\n        emit Deposit(t);\n    }\n    function withdraw(uint amount) public payable{\n        if (balance[msg.sender] > amount){\n            transactionNumber += 1;\n            Transaction memory t = Transaction(\n                transactionNumber,\n                amount,\n                address(this),\n                msg.sender,\n                block.timestamp\n            );\n            balance[msg.sender] -= amount;\n            transactions[transactionNumber] = t;\n            emit Withdraw(t);\n\n        }else{\n            emit WithdrawFailure();\n        }\n\n    }\n    function getCurrentBalance() public {\n        emit CurrentBalance(balance[msg.sender]);\n    }\n\n\n\n\n}",
  "sourcePath": "/home/memez-michalek/Desktop/projects/DecentralizedAllegro/frontend/contracts/Payments.sol",
  "compiler": {
    "name": "solc",
    "version": "0.8.2+commit.661d1103.Emscripten.clang"
  },
  "schemaVersion": "3.4.1",
  "updatedAt": "2021-07-14T21:23:19.661Z",
  "networkType": "ethereum",
  "devdoc": {
    "kind": "dev",
    "methods": {},
    "version": 1
  },
  "userdoc": {
    "kind": "user",
    "methods": {},
    "version": 1
  }
}